:08000000803102288731FD2F39
:100C6600603051018D008F01910102309300920195
:100C760008004F0196019701980199019A019B017D
:100C86009C019D0108008C3046018E008D018C016F
:100C960044011E08FC3901389E0008008C304601CC
:100CA60092009101900144011E08F33904389E0018
:100CB60008008C30460196009501940144011E08F7
:100CC600CF3910389E0008000130450190008F0191
:100CD60091013E308D008C014E019010C0304501CF
:100CE6008E000800FF30F0050330F10546010E1EA8
:100CF6007D2E7E2E832E0630F035F10D890B7F2E4C
:100D060071088D0070088C000800FF30F005033074
:100D1600F1054601121E902E912E962E0630F035C4
:100D2600F10D890B922E7108910070089000080051
:100D3600FF30F0050330F1054601161EA32EA42E42
:100D4600A92E0630F035F10D890BA52E71089500F8
:100D560070089400080086313C2686318631C42608
:100D6600863186313326863186314626863186316E
:100D76005126863186315C26863186316726863154
:100D86000800400198019A013F3092000730940014
:100D96003F307E01CE003730B800B901CF01BA012D
:100DA600D0013730BB003F30D1003F30BC003F3070
:100DB600D2000B30A3000A30A4000930A5000800B9
:100DC6008631AE2686310030F000F1008631752678
:100DD6008631FB30F0000030F100863188268631FE
:100DE600FB30F0000030F10086319B2686310B3057
:100DF600F3002630F2005E30890BFF2EF20BFF2E39
:100E0600F30BFF2EFB30F0000030F1008631752623
:100E160086310030F000F100863188268631FB30BD
:100E2600F0000030F10086319B2686310B30F3004E
:100E36002630F2005E30890B1E2FF20B1E2FF30BAD
:100E46001E2FFB30F0000030F1008631752686310A
:100E5600FB30F0000030F100863188268631003004
:100E6600F000F10086319B2686310B30F3002630E8
:100E7600F2005E30890B3D2FF20B3D2FF30B3D2F19
:100E86000030F000F1008631752686310030F00022
:100E9600F100863188268631FB30F0000030F10003
:100EA60086319B2686310B30F3002630F2005E3009
:100EB600890B5B2FF20B5B2FF30B5B2FFB30F000E4
:100EC6000030F1008631752686310030F000F100E1
:100ED6008631882686310030F000F10086319B2667
:100EE60086310B30F3002630F2005E30890B792F05
:100EF600F20B792FF30B792F0030F000F1008631D9
:100F060075268631FB30F0000030F10086318826E8
:100F160086310030F000F10086319B2686310B3099
:100F2600F3002630F2005E30890B972FF20B972FD5
:100F3600F30B972F0030F000F100863175268631CD
:100F46000030F000F1008631882686310030F0004E
:100F5600F10086319B2686310B30F3002630F200F5
:100F66005E30890BB42FF20BB42FF30BB42F143071
:100F7600F0000030F1008631752686316430F000CD
:100F86000030F100863188268631B430F00000301A
:100F9600F10086319B2686310B30F3002630F200B5
:100FA6005E30890BD42FF20BD42FF30BD42FFB30EA
:100FB600F0000030F1008631752686314B30F000A6
:100FC6000030F1008631882686310A30F000003084
:100FD600F10086319B2686310B30F3002630F20075
:100FE6005E30890BF42FF20BF42FF30BF42FE62E61
:0A0FF6008031022840018631E32E0D
:020000040001F9
:08000000FF3FFF3FFF3FFF3F00
:0A000E00EC3FFF3F9F3FFF3FFF3F25
:00000001FF
