:10000000803102288731D52F14307D01C50015308D
:100010007E01A3001430A40013307D01C60080309F
:1000200043018F0028309000920109308D000800B4
:10003000F800780803191D281E283228F31F2128EC
:10004000222832287009FA007109FB007209FC00AD
:100050007309FD00FA0A0319FB0A0319FC0A0319C4
:10006000FD0A3A287308FD007208FC007108FB00C5
:100070007008FA007308720471047004031D4128AB
:1000800042284B280030F3000030F2000030F1002D
:100090000030F000C1289630F90059280130F400F2
:1000A0007408F9070130FD36FC0CFB0CFA0C890BC7
:1000B0005328FE307D05031D5E285F284E287328D7
:1000C0000130F4007408F9070130FA070030FB3DF5
:1000D0000030FC3D0030FD3D0130FD36FC0CFB0CDA
:1000E000FA0C890B6D28FF307D05031D78287928CF
:1000F000602883280130F9020130FA35FB0DFC0D30
:10010000FD0D890B7D28FC1B862887288D28023051
:10011000790203188C288D287A287918902891283C
:100120009928FF30FA05FF30FB057F30FC05FF30D2
:10013000FD050310F90C7908F400F501F601F7014B
:100140001830F435F50DF60DF70D890BA12874085C
:10015000FA047508FB047608FC047708FD047808A7
:100160000319B328B428B928F31FB728B828B92829
:10017000FD177D08F3007C08F2007B08F1007A0887
:10018000F000080042012B084001C00042012A088B
:100190004001BF00420129084001BE004201280879
:1001A0004001BD003008C0002F08BF002E08BE006F
:1001B0002D08BD003D08B1003E08B2003F08B30065
:1001C0004008B4001730B436B30CB20CB10C890B34
:1001D000E328FF303105B50000303205B6003508A0
:1001E000813EBB00FF30363DBC003C08803AB10088
:1001F00080303102031DFE2817303B02031C012909
:1002000002290329AC294001BC1B072908296529BB
:10021000FF30B100FF30B2007F30B3000030B400D7
:100220003B0A1629B437B30CB20CB10C890B122956
:100230003408BA003308B9003208B8003108B700F2
:100240003D083705B1003E083805B2003F083905C2
:10025000B30040083A05B4003408330432043104D2
:10026000031D33293429352902293D08B1003E08F0
:10027000B2003F08B3004008B4001F30B436B30CDE
:10028000B20CB10C890B3E2934083304320431041A
:1002900003194B294C2954293708BD073808BE3D9E
:1002A0003908BF3D3A08C03D3709B1003809B200EE
:1002B0003909B3003A09B4003108BD053208BE055A
:1002C0003308BF053408C005A4293D08B1003E0825
:1002D000B2003F08B3004008B4001F30B436B30C7E
:1002E000B20CB10C890B6E2934083304320431048A
:1002F000031D7B297C2985290030C0000030BF0008
:100300000030BE000030BD00A4293D08B1003E0809
:10031000B2003F08B3004008B4000130B135B20D5F
:10032000B30DB40D890B8E29340833043204310423
:1003300003199B299C29A429BF30C0008030BF002D
:100340000030BE000030BD004008B0003F08AF00E4
:100350003E08AE003D08AD0008004101AF00C201FB
:10036000400144084101C800400143084101C70061
:10037000400142084101C600400141084101C50059
:1003800048084001B800410147084001B700410159
:1003900046084001B600410145084001B500003063
:1003A000BC000030BB000030BA000030B90096310C
:1003B000E12681310318DD29DE29F5294101C20139
:1003C000C20A4808F3004708F2004608F100450851
:1003D000F0009031D420813173084101C8007208C7
:1003E000C7007108C6007008C5004101C301C401FF
:1003F0006708B3006608B20042080319002A012A00
:10040000112A4208031D052A062A0B2A2B30A600B2
:100410000030A7000F2A2D30A6000030A7002608C4
:10042000C2004808F3004708F2004608F1004508FA
:10043000F0009531E025813170037104031D212AFC
:10044000222A532A410142080319272A282A342A3A
:1004500042084301A000FF304101B207FF30B33D25
:100460000130C3000030C4000B30F0009830F100C0
:100470004308A03E9131E3218131FD304101B207B3
:10048000FF30B33DA0304001A600410133084001D8
:10049000A800410132084001A70041012F08933113
:1004A00087238131D42F41014808F3004708F20027
:1004B0004608F1004508F0009531E02581317008CB
:1004C0007104031D642A652A962A41014208031912
:1004D0006A2A6B2A772A42084301A000FF304101B3
:1004E000B207FF30B33D0130C3000030C4000F300D
:1004F000F0009830F1004308A03E9131E3218131B2
:10050000FD304101B207FF30B33DA0304001A600ED
:10051000410133084001A800410132084001A70011
:1005200041012F08933187238131D42F3F3041017E
:10053000CC008030CB000030CA000030C900B001D0
:10054000B1014808F3004708F2004608F1004508E9
:10055000F0000030F7000030F6000030F500003009
:10056000F4009331CE2381310318B72AB82AFA2B2D
:10057000C62A41013708CC003608CB003508CA002E
:100580003408C9000130B0070030B13D41304001AE
:10059000A3002030A2000030A1000030A0004101E3
:1005A0004C084001A70041014B084001A600410151
:1005B0004A084001A500410149084001A4008D31CD
:1005C000C5258131400123084101B70040012208BF
:1005D0004101B600400121084101B5004001200859
:1005E0004101B400340845024001C600410135080C
:1005F000463B4001C70041013608473B4001C80067
:1006000041013708483B4001C9004908F300480848
:10061000F2004708F1004608F00092314322813190
:10062000F31B202B7308031D212B7208031D212BA4
:100630007108031D212B02307002031C202B212B7B
:10064000B92A410137084001B8004101360840018C
:10065000B700410135084001B600410134084001AE
:10066000B500410148084001BC0041014708400174
:10067000BB00410146084001BA0041014508400164
:10068000B9009631E1268131031C472B482BB92A4A
:100690004101490845024001C60041014A08463B64
:1006A0004001C70041014B08473B4001C8004101E0
:1006B0004C08483B4001C9004908F3004808F200D3
:1006C0004708F1004608F000923143228131F31BC4
:1006D000782B7308031D772B7208031D772B710885
:1006E000031D772B023070020318772B782BD32B46
:1006F00041014C08C8004B08C7004A08C600490819
:10070000C500FA2B4130F3002030F2000030F10038
:100710000030F00041014C08F7004B08F6004A0891
:10072000F5004908F40088313F2081317308410108
:10073000CC007208CB007108CA007008C900FF30F5
:10074000B007FF30B13D490845024001C6004101F4
:100750004A08463B4001C70041014B08473B400166
:10076000C80041014C08483B4001C9004908F3005A
:100770004808F2004708F1004608F0009231432291
:100780008131F31BD22B7308031DD12B7208031D7B
:10079000D12B7108031DD12B023070020318D12B0D
:1007A000D22BD32B782B410148084001B8004101DE
:1007B00047084001B700410146084001B600410129
:1007C00045084001B50041014C084001BC00410111
:1007D0004B084001BB0041014A084001BA004101F9
:1007E00049084001B9009631E1268131031CF92BFB
:1007F000FA2B822B400145084101A9002908AA00D3
:10080000E91B032C042C092C6908A3006808A2002A
:100810000D2C0630A2000030A3002308AE002208F1
:10082000AD000130AD070030AE3D66302A06031D35
:100830001A2C1B2C332CB11F1E2C1F2C292C3F30A3
:10084000CC008030CB000030CA000030C900B001BD
:10085000B1016730290603192E2C2F2C332C3008B8
:10086000AD073108AE3DB801B9014808BD004708E1
:10087000BC004608BB004508BA004C08B7004B084E
:10088000B6004A08B5004908B400F42C41014C08F0
:10089000F3004B08F2004A08F1004908F0003D0857
:1008A000F7003C08F6003B08F5003A08F4008831F0
:1008B0003F20813173084001B0007208AF00710819
:1008C000AE007008AD008031C22081314001300897
:1008D0004101C10040012F084101C00040012E0824
:1008E0004101BF0040012D084101BE004108F30055
:1008F0004008F2003F08F1003E08F00095317025F5
:10090000813171084101AC007008AB004C08400116
:10091000A70041014B084001A60041014A084001DF
:10092000A500410149084001A400410141084001DE
:10093000A300410140084001A20041013F084001DD
:10094000A10041013E084001A0008D31C525813143
:1009500040012308B8002208B7002108B60020088B
:10096000B50041013D084001BC0041013C08400187
:10097000BB0041013B084001BA0041013A08400177
:10098000B900923102228131400138084101BD0095
:10099000400137084101BC00400136084101BB005D
:1009A000400135084101BA004130F3002030F20027
:1009B0000030F1000030F0004C08F7004B08F60062
:1009C0004A08F5004908F40088313F208131730856
:1009D0004101CC007208CB007108CA007008C90040
:1009E0000130B8070030B93D3908803A4001C600EF
:1009F00041012E08803A40014602031D022D4101AB
:100A00002D083802031C052D062D462C40304001D0
:100A1000A300A030A2000030A1000030A0004101DE
:100A20004C084001A70041014B084001A6004101CC
:100A30004A084001A500410149084001A4008D3148
:100A4000C5258131400123084101C1004001220830
:100A50004101C000400121084101BF0040012008C0
:100A60004101BE003D084001B80041013C08400181
:100A7000B70041013B084001B60041013A0840017E
:100A8000B500410141084001BC004101400840015E
:100A9000BB0041013F084001BA0041013E0840014E
:100AA000B9009631E12681310318572D582D622D5A
:100AB00000304101C1000030C0000030BF000030F4
:100AC000BE00872D41013D08F3003C08F2003B08C1
:100AD000F1003A08F0004108F7004008F6003F082E
:100AE000F5003E08F4009331CE238131031C792DAB
:100AF0007A2D872D41012B187E2D7F2D872D0030DB
:100B0000C1000030C0000030BF000030BE00410115
:100B100041084001A300410140084001A2004101F9
:100B20003F084001A10041013E084001A0004101F1
:100B300048084001A700410147084001A6004101C3
:100B400046084001A500410145084001A4008B3141
:100B5000BD238131400123084101BD00400122082D
:100B60004101BC00400121084101BB0040012008B7
:100B70004101BA003D084001B80041013C08400174
:100B8000B70041013B084001B60041013A0840016D
:100B9000B5004130A3002030A2000030A100003099
:100BA000A000410137084001A7004101360840017B
:100BB000A600410135084001A5004101340840016B
:100BC000A4008D31C525813140012308BC002208D5
:100BD000BB002108BA002008B9009631E126813116
:100BE000031CF32DF42D2F2E01304101B0070030EE
:100BF000B13D41304001A3002030A2000030A100EF
:100C00000030A000410137084001A700410136082B
:100C10004001A600410135084001A500410134080A
:100C20004001A4008D31C5258131400123084101D7
:100C3000B700400122084101B600400121084101EE
:100C4000B500400120084101B40066302A06031DAA
:100C50002A2E2B2E2F2E0130AD070030AE3D410144
:100C60003708CC003608CB003508CA003408C90064
:100C70003108A1003008A000A801A401A501B80115
:100C8000B901582F41014C08F3004B08F2004A0803
:100C9000F1004908F0003D08F7003C08F6003B0869
:100CA000F5003A08F40088313F2081317308400193
:100CB000B0007208AF007108AE007008AD0080315E
:100CC000C2208131400130084101C10040012F089C
:100CD0004101C00040012E084101BF0040012D0824
:100CE0004101BE004108F3004008F2003F08F10056
:100CF0003E08F0009531702581317108803A40013D
:100D0000C60080304602031D872E0A307002031889
:100D10008A2E8B2E9D2E41014108F3004008F200DF
:100D20003F08F1003E08F0009531702581317108CF
:100D30004101AC007008AB00A22E09304101AB00AC
:100D40000030AC002808031DA62EA72ED02EA11F10
:100D5000AA2EAB2ED02E4308A03E8600013087007D
:100D60002E3081000130C3070030C43DFF30B20790
:100D7000FF30B33DA801A80AD02E4308A03E86004C
:100D800001308700303081000130C3070030C43D9E
:100D9000FF30B207FF30B33DFF30A407FF30A53D61
:100DA00024082504031DD52ED62EBD2E4308A03EB3
:100DB0008600013087002B08303E81000130C307D8
:100DC0000030C43DFF30B207FF30B33D4C08400156
:100DD000A70041014B084001A60041014A0840011B
:100DE000A500410149084001A4004101410840011A
:100DF000A300410140084001A20041013F08400119
:100E0000A10041013E084001A0008D31C52581317E
:100E100040012308B8002208B7002108B6002008C6
:100E2000B50041013D084001BC0041013C084001C2
:100E3000BB0041013B084001BA0041013A084001B2
:100E4000B900923102228131400138084101BD00D0
:100E5000400137084101BC00400136084101BB0098
:100E6000400135084101BA004130F3002030F20062
:100E70000030F1000030F0004C08F7004B08F6009D
:100E80004A08F5004908F40088313F208131730891
:100E90004101CC007208CB007108CA007008C9007B
:100EA000FF30A007FF30A13D0130B8070030B93D49
:100EB0003908803A4001C60041012E08803A4001BD
:100EC0004602031D662F41012D0838020318692FC1
:100ED0006A2F7A2F41014408803A4001C6008030D1
:100EE0004602031D762F4B3041014302031C792F2C
:100EF0007A2F422E4F304101B8000030B900380837
:100F0000A03E8600013087008101A030F000440837
:100F1000F2004308F100A0304001C600410143083F
:100F200040014602410138079231D022813141010E
:100F300043083802C3004408393BC4004208031D7B
:100F4000A22FA42F0130A52F00304001C600C701F9
:100F500046084101B800400147084101B900420874
:100F60000319B32FB42FBF2FFF30C307FF30C43D89
:100F70004308A03E860001308700420881003808FF
:100F8000B2023908B33B4308A03E4001A60041012C
:100F900033084001A800410132084001A700410187
:100FA0002F0893318723813108000330840091306A
:100FB000850030308600013087000E3088310020F7
:100FC0008731EC01ED01EE01EF01E63084000030E5
:100FD000850007309031A92087312030840001300E
:100FE000850010309031A9208731A0308400013075
:100FF000850050309031A920873140019431BD2CBB
:10100000FE0012001E00FE0B01280034F1010F301B
:10101000F0007108373E86000130870070088105B6
:101020000130F0007008F10707307102031C192825
:101030001A28072842013708F0000330F035FF3E38
:10104000031D1E28703538074001ED0042013908A4
:10105000F0000330F035FF3E031D2A2870353A07B3
:101060004001EE0042013B08F0000330F035FF3E46
:10107000031D362870353C074001EF000800770853
:1010800080394001A4007735AB00F61F4828492875
:101090004A282B142B0803194E284F285F282B0AA7
:1010A000031D532854285C280030F7000030F60058
:1010B0000030F5000030F400F617F7016728003023
:1010C000F7000030F6000030F5000030F40073083F
:1010D0008039F8007808A4067335AC00F21F712837
:1010E000722873282C142C0803197728782888284C
:1010F0002C0A031D7C287D2885280030F300003051
:10110000F2000030F1000030F000F217F3019028F7
:101110000030F3000030F2000030F1000030F00049
:101120007308720471047004031D97289828B1286D
:101130000030F7000030F6000030F5000030F40019
:101140008030F6047F30F7042408F8007808F704AC
:101150007708F3007608F2007508F1007408F000D3
:10116000E8292B08031DB528B628BF280030F30056
:101170000030F2000030F1000030F000E8292B08C8
:10118000F800F9017908FB002C087802FA00031C2A
:10119000FB037A087F3EA50000307B3DA600770860
:1011A000A3007608A2007508A1007408A000003012
:1011B000F7000030F6000030F5000030F400003099
:1011C000AA000030A9000030A8000030A700AC0140
:1011D00027292C080319ED28EE2808290130A0350D
:1011E000A10DA20DA30D890BEF280130F435F50DEB
:1011F000F60DF70D890BF628AA1FFF2800290129F3
:1012000074140130A735A80DA90DAA0D890B022968
:1012100073082302031D162972082202031D1629D2
:1012200071082102031D162970082002031C1929C8
:101230001A2923292A177008A0027108A13B7208F5
:10124000A23B7308A33B0130F8007808AC071A30C2
:101250002C02031C2C292D29E9282308220421040F
:1012600020040319342935294E2927144E29013029
:10127000F435F50DF60DF70D890B3829AA1F412914
:101280004229432974140130A735A80DA90DAA0DD0
:10129000890B4429FF30A507FF30A63DF61F5129D1
:1012A00052293729AC01AA1F562957297329FF3023
:1012B0002705F800FF302805F900FF302905FA005E
:1012C0007F302A05FB007B087A047904780403192F
:1012D0006A296B296E29AC01AC0A7329741C712927
:1012E000722973296B292C08031977297829A029D9
:1012F0000130F4070030F53D0030F63D0030F73D99
:10130000771C83298429A0297408F8007508F9003E
:101310007608FA007708FB000130FC00FB37FA0C76
:10132000F90CF80CFC0B8E297B08F7007A08F60004
:101330007908F5007808F4000130A5070030A63DD3
:101340002608803AF80080307802031DA929FF3072
:101350002502031CAC29AD29BA29FF304001A500A4
:101360000030A6000030F7000030F6000030F50035
:101370000030F40040012608803AF80080307802FE
:10138000031DC429013025020318C729C829D429FF
:101390004001A501A6010030F7000030F600003042
:1013A000F5000030F400A40140012508AB002B1C1F
:1013B000DA29DB29DD29F617E1297F30F8007808E2
:1013C000F6052B36F7002408F8007808F704A8285B
:1013D00008004001D60041014D0886008701403FCA
:1013E0004001CA00413FCB004A0884004B088500F9
:1013F0001200253A031DFD29FE29A22B41014D08AB
:10140000860087010130810741310318810AE60116
:10141000E7010310003003180130EA00FF30E80054
:10142000FF30E9004D0886008701403F4001CA00B7
:10143000413FCB004A0884004B08850012002A3A3D
:10144000031D232A242A442A41014D0886008701CE
:101450000130810741310318810A4E088600870157
:1014600001088400850102308107003FE600013F4A
:10147000E700E71F3C2A3D2A7A2A6A14E609E709B1
:10148000E60A0319E70A7A2A41014D088600870116
:10149000403FF600413FF70097316C2789317708CC
:1014A0004101E7007608E6005E2A41014D0886000A
:1014B00087010130810741310318810A4D088600F8
:1014C0008701403F4001CA00413FCB004A088400E9
:1014D0004B0885000008D03ECC00FF3003180030D8
:1014E000CD0000304D020A3003194C02031C792A4A
:1014F0007A2A552A41014D0886008701403F400164
:10150000CA00413FCB004A0884004B088500120006
:101510002E3A031D8C2A8D2AF62A4101E801E901A1
:101520004D08860087010130810741310318810A87
:101530004D0886008701403F4001CA00413FCB0073
:101540004A0884004B08850012002A3A031DA92A84
:10155000AA2AC02A41014D0886008701013081076F
:1015600041310318810A4E08860087010108840072
:10157000850102308107003FE800013FE900F62ABB
:1015800041014D0886008701403FF600413FF700CA
:1015900097316C27893177084101E9007608E80026
:1015A000DA2A41014D088600870101308107413167
:1015B0000318810A4D0886008701403F4001CA0098
:1015C000413FCB004A0884004B0885000008D03E0C
:1015D000CC00FF3003180030CD0000304D020A303F
:1015E00003194C02031CF52AF62AD12A41014D08A1
:1015F00086008701403F4001D800413FD90058088C
:101600008400590885000008D700102B0130D80746
:101610000030D93D232B6C30D700232BD701232B4F
:101620005708CA00CB014B08003A0319182B0E2BA0
:101630004A084C3A0319062B2A3A03190B2B0A3A8B
:101640000319062B0E2B5808840059088500120038
:10165000663A031D2C2B2D2B982B542B41014E0841
:101660008600870101088400850104308107003F5E
:101670004001CE00013FCF00023FD000033FD10028
:10168000642B41014E088600870101088400850112
:1016900004308107003F4001CE00013FCF00023FF0
:1016A000D000033FD100642B5708CA00CB014B0880
:1016B000003A03195C2B642B4A084C3A0319412B5E
:1016C000203A03192E2B642B5808013ECA00003023
:1016D000593DCB0041014D088600870140014A0871
:1016E000C03F4B08C13F872B5108C4005008C300BE
:1016F0004F08C2004E08C1005808840059088500F0
:101700000008C50056088131AD218931BC2B58082D
:101710008400590885000008CA00CB014B08003A34
:101720000319932B982B4A08663A0319742B982BAC
:1017300041014D08860087010130810741310318BE
:10174000810ABC2B41014D0886008701403F4001C2
:10175000CA00413FCB004A0884004B0885000008BE
:10176000CC00CD014C08F4004D08F5005608F600F9
:1017700094311C248931982B0800400123088039BA
:10178000B0002335B200A21FC62BC72BC82B3214C2
:1017900032080319CC2BCD2BDD2B320A031DD12BA4
:1017A000D22BDA2B0030A3000030A2000030A100C1
:1017B0000030A000A217A301E52B0030A3000030E9
:1017C000A2000030A1000030A00027088039B1003D
:1017D000310830060319ED2BEE2BEF2B3017273590
:1017E000B100A61FF42BF52BF62B31143108031989
:1017F000FA2BFB2B0B2C310A031DFF2B002C082C82
:101800000030A7000030A6000030A5000030A40082
:10181000A617A701132C0030A7000030A600003047
:10182000A5000030A400320831020318182C192C2E
:101830003F2C301F1C2C1D2C212C8030A800280888
:10184000B0063208B3003108B2003308B1002008F6
:10185000B3002408A0003308A4002108B300250821
:10186000A1003308A5002208B3002608A20033080F
:10187000A6002308B3002708A3003308A700B3017C
:101880003108A800A9012908AB0032082802AA00E3
:10189000031CAB032B08803AAC0080302C02031DE4
:1018A000532C1A302A02031C562C572C892C400129
:1018B0002308220421042004031D5F2C612C013025
:1018C000622C0030B3000030A3000030A2000030D2
:1018D000A1000030A0003108B200902C331C712C04
:1018E000722C762C33360138B300782C0310B30CED
:1018F000201C7B2C7C2C7D2CB3170130A800A33737
:10190000A20CA10CA00CA80B7F2C0130A800280869
:10191000B207400131083202031C8F2C902C6E2C30
:10192000301B932C942CCA2C3208031D982C992C14
:10193000A22C0030A3000030A2000030A100003033
:10194000A000C42D2408A0072508A13D2608A23D1B
:101950002708A33D231CAD2CAE2C562D331CB12CD7
:10196000B22CB62C33360138B300B82C0310B30CAC
:10197000201CBB2CBC2CBD2CB3170130A800A337F6
:10198000A20CA10CA00CA80BBF2C0130A8002808A9
:10199000B207562D2308803AA8002708803A28026B
:1019A000031DDC2C26082202031DDC2C2508210245
:1019B000031DDC2C240820020318DF2CE02C182D3A
:1019C000FF30A800FF30A900FF30AA00FF30AB00B5
:1019D00020082402AC002108253BAD002208263B4C
:1019E000AE002308273BAF002C08A8072D08A93D0F
:1019F0002E08AA3D2F08AB3D2B08A3002A08A20001
:101A00002908A1002808A0008030A8002808B006F6
:101A1000B309B30A3308031D0E2D0F2D202D0130FD
:101A2000A0070030A13D0030A23D0030A33D202D95
:101A30002408A0022508A13B2608A23B2708A33BB7
:101A40002308220421042004031D272D282D522DB4
:101A50003308031D2C2D2D2D522D0030A3000030F6
:101A6000A2000030A1000030A000C42D0130A0353C
:101A7000A10DA20DA30D890B372DB31F402D412DB4
:101A8000422D2014331C452D462D492D0314B30D32
:101A90004B2D0310B30D320803194F2D502D522D2D
:101AA0000130B202A21F552D562D362DB101B31FA4
:101AB0005A2D5B2D692D33087F390319602D612D57
:101AC000642DB101B10A692D201C672D682D692D87
:101AD000612D310803196D2D6E2D9B2D0130A0074E
:101AE0000030A13D0030A23D0030A33D231C792DE4
:101AF0007A2D9B2D2008A8002108A9002208AA0001
:101B00002308AB000130AC00AB37AA0CA90CA80C21
:101B1000AC0B842D2B08A3002A08A2002908A100E1
:101B20002808A000320A0319962D972D9B2D01300D
:101B3000A8002808B207320A03199F2DA02DA52D51
:101B40003208031DA42DA52DB32D0030A3000030B5
:101B5000A2000030A1000030A0003208031DB12D0A
:101B6000B22DB32DB001321CB62DB72DB92DA21751
:101B7000BD2D7F30A8002808A2053236A300B01F73
:101B8000C22DC32DC42DA31708004001230880399E
:101B9000A8002335AE00A21FCE2DCF2DD02D2E14A0
:101BA0002E080319D42DD52DE42D2E0A031DD92D71
:101BB000DA2DE22D0030A3000030A2000030A10099
:101BC0000030A000A217EC2D0030A3000030A200CE
:101BD0000030A1000030A00027088039F900790802
:101BE000A8062735AD00A61FF62DF72DF82D2D14CC
:101BF0002D080319FC2DFD2D0C2E2D0A031D012E81
:101C0000022E0A2E0030A7000030A6000030A500EA
:101C10000030A400A617142E0030A7000030A60044
:101C20000030A5000030A4002D080319182E192E2D
:101C30001E2E2E08031D1D2E1E2E272E0030A30043
:101C40000030A2000030A1000030A000FF2F2008CB
:101C5000F0002608923165228D3171084001B400F0
:101C60007008B3003308F900FA01FB01FC017C089D
:101C7000AC007B08AB007A08AA007908A9003408F8
:101C8000F900FA01FB01FC017C08B2007B08B100FD
:101C90007A08B0007908AF002108F00025089231D9
:101CA00065228D3171084001B4007008B30033081B
:101CB000F900FA01FB01FC017908A9077A08AA3D9D
:101CC0007B08AB3D7C08AC3D3408F900FA01FB0110
:101CD000FC017908AF077A08B03D7B08B13D7C086C
:101CE000B23D2208F0002408923165228D3171083E
:101CF0004001B4007008B3003308F900FA01FB0199
:101D0000FC017908A9077A08AA3D7B08AB3D7C084D
:101D1000AC3D3408F900FA01FB01FC017908AF077A
:101D20007A08B03D7B08B13D7C08B23D0830A9354A
:101D3000AA0DAB0DAC0D890B972E2108F0002408DD
:101D4000923165228D3171084001B4007008B300F2
:101D50003308A9073408AA3D0030AB3DAC3D20084C
:101D6000F0002508923165228D3171084001B400E0
:101D70007008B3003308A9073408AA3D0030AB3D12
:101D8000AC3D0830A935AA0DAB0DAC0D890BC22EA8
:101D90002008F0002408923165228D31710840013D
:101DA000B4007008B3003308A9073408AA3D003016
:101DB000AB3DAC3D2108F0002608923165228D3103
:101DC00071084001B4007008B3003308AF0734084D
:101DD000B03D0030B13DB23D2208F00025089231FF
:101DE00065228D3171084001B4007008B3003308DA
:101DF000AF073408B03D0030B13DB23D2208F000DD
:101E00002608923165228D3171084001B4007008B6
:101E1000B3003308F9003408FA00FB01FC01083074
:101E2000F935FA0DFB0DFC0D890B102F7908AF0762
:101E30007A08B03D7B08B13D7C08B23D2908F90025
:101E40002A08FA002B08FB002C08FC001830FC368E
:101E5000FB0CFA0CF90C890B272F7908AF077A08CD
:101E6000B03D7B08B13D7C08B23D0830A935AA0DD4
:101E7000AB0DAC0D890B362F2E082D07F900FA019A
:101E8000FA0D7908823EB300FF307A3DB4005F2F2F
:101E90000130AF35B00DB10DB20D890B492FAC1F1C
:101EA000522F532F542F2F140130A935AA0DAB0DEB
:101EB000AC0D890B552FFF30B307FF30B43DB11F78
:101EC000622F632F482FAD01AC1F672F682F842F1F
:101ED000FF302905F900FF302A05FA00FF302B05F5
:101EE000FB007F302C05FC007C087B047A0479041D
:101EF00003197B2F7C2F7F2FAD01AD0A842F2F1C60
:101F0000822F832F842F7C2F2D080319882F892F50
:101F1000B12F0130AF070030B03D0030B13D00308F
:101F2000B23D321C942F952FB12F2F08F9003008A5
:101F3000FA003108FB003208FC000130FD00FC37DC
:101F4000FB0CFA0CF90CFD0B9F2F7C08B2007B08F0
:101F5000B1007A08B0007908AF000130B307003053
:101F6000B43D3408803AF90080307902031DBA2F5D
:101F7000FF303302031CBD2FBE2FC82F7F3040011E
:101F8000B2008030B1000030B0000030AF00F32F5D
:101F900040013408803AF90080307902031DD22FC5
:101FA000013033020318D52FD62FE12F0030400126
:101FB000B2000030B1000030B0000030AF00A80126
:101FC000F32F40013308AE00FF30AF05FF30B005FE
:101FD0007F30B1050030B2052E1CEF2FF02FF12F0E
:101FE000B1172E36B2002808F9007908B204320879
:101FF000A3003108A2003008A1002F08A0000800AB
:10214600F30073089031CC209031080064008001C0
:102156000131890BAA280034430191149118B4283F
:10216600B528B1280800430111141118BB28BC2852
:10217600B8280800430111151119C228C328BF2821
:102186000800F20040019A10720894316C249031D4
:102196000800F20040019A14720894316C249031C0
:1021A600080073087204710470040319DB28DC2824
:1021B600DE288030F30608004E010F10430191150A
:1021C6004E010F1CE728E828E32843010C08080005
:1021D600F0004E010F10700843018C004E010F1CD9
:1021E600F528F628F128080051010D088F396038C6
:1021F6008D00F0308D051308F83902389300080079
:1022060032343034303433343134393400343134C8
:10221600303435343834343435340034FF3040010A
:1022260093000F309400FF309500E7307E01CE001A
:102236000F30D900F930E4000800F4002D297408A5
:102246008600870101089031CC2091310130F300DE
:102256007308F4077408860087010108031D3429F2
:102266003529222908007008D03EF200FF30713D62
:10227600F300003073020A3003197202031C44296A
:102286004629013047290030F400F5017408F000B2
:102296007508F1000800F1009031B6209131D03078
:1022A6009031EB20913171089031EB2091319031D2
:1022B600AF209131D1309031EB2091319031DF2038
:1022C6009131F2009031BD209131720808009031B1
:1022D600B6209131D0309031EB20913104309031DD
:1022E600EB20913140016C089031EB209131410196
:1022F6006C089031EB20913141016B089031EB2055
:1023060091319031BD20913108009031B620913144
:10231600D0309031EB20913100309031EB2091316B
:1023260040016F089031EB20913140016E089031E9
:10233600EB20913140016D089031EB2091319031C5
:10234600BD20913108004001DF00D430E0005F0875
:10235600E100E301E401E901EA0141015308D0008B
:102366005208CF006030D10061309231882291311D
:10237600400163085F07DE005E0886008701810171
:102386000800F401F501701CC929CA29CE29720872
:10239600F4077308F53D0130F235F30D890BCF29AB
:1023A6000130F136F00C890BD42970087104031D35
:1023B600DD29DE29C6297508F1007408F000080039
:1023C600F7007108F5007008F4007708F600760843
:1023D600860001308700F60A7508F3007408F200DB
:1023E600F40A0319F50A72088400730885000008C8
:1023F600C03F8908031D002A012AEA290800803007
:102406004001B8063C08A3003B08A2003A08A10018
:102416003908A0003808A7003708A6003608A50026
:102426003508A4008B31BD23923140012308B80042
:102436002208B7002108B6002008B5000800F401FC
:10244600F40A20307006710403192A2A2B2A3B2A23
:102456007008F73EF200FF30713DF3000030730262
:10246600053003197202031C392A3A2A3B2AF40161
:102476007408F200F3017208F0007308F100080016
:10248600F31B542A7308031D532A7208031D532A8B
:102496007108031D532A013070020318532A542A67
:1024A600642A7009F0007109F1007209F2007309DB
:1024B600F300F00A0319F10A0319F20A0319F30AE1
:1024C600642A0800F800F401F5017008F200F3012F
:1024D6007208F6007308F700781C722A732A772AA6
:1024E6007608F4077708F53D0130F635F70D890BC8
:1024F600782A0310F80C7808031D822A832A6F2A8B
:102506007508F1007408F00008004001DB00410185
:1025160050084001DD0041014F084001DC009D2AC2
:102526005C304101CD005108CE0040015B08893185
:10253600E921923140015C0884005D0885001200A3
:10254600031DA62AA72A932A4101CF01D00108001C
:102556004001A500A301A401C12A2208A000A101EF
:102566002008F4002108F5007C08F60094311C24AC
:10257600923101304001A3070030A43D230825070E
:10258600A00020088600013087000108A20022086A
:10259600031DCE2ACF2AB02A0800F5007008F700DE
:1025A6007508F600EA2A77088600013087000108D8
:1025B600F4000130F3007308F7077608860001304F
:1025C6008700740881000130F3007308F6070130B4
:1025D600F1020030F23B710A031DF52A720A031D4F
:1025E600F52AF62AD62A0800F000701EFB2AFC2AD5
:1025F600FF2A40019917012B40019913F01E042B65
:10260600052B072B1917082B1913701F0B2B0C2BD7
:102616000E2B99160F2B9912F01F122B132B152B1D
:102626001916162B19121A150000000040011A116E
:102636001030890B1C2B00320800F700322B77086C
:10264600FF3EF600482B77083F3EF600482B7708FA
:10265600133EF600482B7708533EF600482B7308C6
:10266600F400F5017508003A03193A2B222B740879
:10267600013A0319222B033A0319262B013A0319AF
:102686002A2B073A03192E2B222B760880389031F5
:10269600C42093310800F1010F30F0007108303E7C
:1026A600860001308700700881050130F00070084F
:1026B600F10707307102031C612B622B4F2B42017D
:1026C6003008F0000330F035FF3E031D662B7035F1
:1026D60031074001EC0042013208F0000330F035CA
:1026E600FF3E031D722B703533074101EC0042019A
:1026F6003408F0000330F035FF3E031D7E2B7035A5
:1027060035074101EB0008004001AD0041016A1C9C
:102716008D2B8E2B952B40012D08FC00260892311F
:10272600AB2293314001A81B992B9A2B9F2B28088B
:10273600AC002708AB00A12BAB01AC01A901AA0193
:10274600B32B2030F4000030F50040012D08F600D0
:1027560094311C24933101304001A9070030AA3D71
:102766002A08803AFD002C08803A7D02031DBD2B05
:102776002B082902031CC02BC12BA42B41016A186C
:10278600C52BC62BCD2B40012D08FC002608923107
:10279600AB229331080000307005F8000030710557
:1027A600F90080307205FA007F307305FB007B0864
:1027B6007A0479047804031DE12BE22BEA2B00301E
:1027C600F3000030F2000030F1000030F00000307D
:1027D6007405F80000307505F90080307605FA00BA
:1027E6007F307705FB007B087A0479047804031DA3
:1027F600FD2BFE2B062C0030F7000030F6000030D3
:10280600F5000030F40077087306031D142C7608D3
:102816007206031D142C75087106031D142C74080A
:1028260070060319172C182C1A2C03101B2C0314D2
:10283600080076080319202C212C262C7608031D67
:10284600252C262C2B2C74089031A32094316B2C2C
:102856007608083E86008701160001040319342C09
:10286600352C532C7608083E86008701403FF7003A
:10287600413FF8007608023E86008701403FF90096
:10288600413FFA007A08803AFB007808803A7B02DA
:10289600031D4F2C770879020318522C532C6B2CEE
:1028A6007608860087017608023E840085010008C6
:1028B6000107F7007708860087017408810076080B
:1028C600023E860087010130810741310318810AE3
:1028D6000800F100711E702C712C742C40019917A0
:1028E600762C40019913F11E792C7A2C7C2C191721
:1028F6007D2C1913711F802C812C832C9916842C06
:102906009912F11F872C882C8A2C19168B2C1912D8
:102916001A15000040011A117108F0000330F03555
:10292600FF3E031D922C7035F100711E9B2C9C2CD2
:102936009E2C99179F2C9913F11EA22CA32CA52C23
:102946001917A62C1913711FA92CAA2CAC2C991691
:10295600AD2C9912F11FB02CB12CB32C1916B42C36
:1029660019121A15000040011A111030890BB92CE2
:10297600003208009131112194319031F7209431C1
:1029860095310E259431803104209431883106200A
:10299600943191318821943193314E239431913180
:1029A6006A21943182304001EB00DD30890BD92C4D
:1029B600EB0BD92C0032F301F30A023093312023BA
:1029C600943196315F269431400138084101E50083
:1029D600400137084101E400400136084101E300A7
:1029E600400135084101E2000030D2009830D300A2
:1029F6006508D7006408D6006308D5006208D400CD
:102A0600D8309131A6219431D8309131202194319A
:102A1600D52C8031022840019413141394121412F9
:102A2600951015119A101A11991319139912191252
:102A36001A30F300F830890B1E2DF30B1E2D0032D1
:102A460003309231F72295310730F3007D30890B40
:102A56002A2DF30B2A2D000003309231F7229531EF
:102A66002130890B342D000003309231F722953145
:102A76002130890B3C2D000002309231F72295312E
:102A86002130890B442D00004130F300EE30890BD4
:102A96004A2DF30B4A2D003202309031C420953175
:102AA60028309031C42095310C309031C4209531B6
:102AB60006309031C420953101309031C4209531D3
:102AC6000230F4008630F3009930890B682DF30B41
:102AD600682DF40B682D000008000310720D730DAD
:102AE600F9007908031D782D792D822D0030F30029
:102AF6000030F2000030F1000030F000DF2D7008E9
:102B0600F4007108F5007208F6007308F7001F302C
:102B1600F736F60CF50CF40C890B8B2D7408F800BF
:102B2600F217FF30F005FF30F105FF30F2050030F7
:102B3600F3059630F902F91FA12DA22DBA2D7908B9
:102B4600803A973E0318A82DA92DAA2D792D01307C
:102B5600F336F20CF10CF00C890BAB2D0130F400BE
:102B66007408F907031DB82DB92DAA2DCF2D2030D5
:102B76007902031CBF2DC02DCA2D792D0130F035E9
:102B8600F10DF20DF30D890BC22D0130F902790812
:102B9600031DCE2DCF2DC12D78080319D32DD42D8D
:102BA600DF2DF009F109F209F309F00A0319F10A18
:102BB6000319F20A0319F30A080042012F0840011B
:102BC600A50042012E084001A40042012D08400143
:102BD600A30042012C084001A2007308A500720858
:102BE600A4007108A3007008A2002208F4002308BC
:102BF600F5002408F6002508F7001730F736F60C1E
:102C0600F50CF40C890B012EFF307405A000003082
:102C16007505A10020082104031D122E132E342E43
:102C26002208F4002308F5002408F6002508F7001A
:102C36000130F435F50DF60DF70D890B1C2E7708CE
:102C4600760475047404031D292E2A2E2F2E0230B5
:102C5600F0000030F1005E2E0330F0000030F1008D
:102C66005E2E200A2104031D392E3A2E5A2E2208E2
:102C7600F4002308F5002408F6002508F7000930BB
:102C8600F435F50DF60DF70D890B432E770876040E
:102C9600750474040319502E522E0130532E003041
:102CA600F800F9017808F0007908F1005E2E04308A
:102CB600F0000030F1000800113091314E219631BC
:102CC6004001BD00123091314E2196314001BE00C7
:102CD600BE0EBE0CBE0C0330BE050330B90039086B
:102CE600BE053E08B900BA01BB01BC013C08F300B1
:102CF6003B08F2003A08F1003908F0000030803154
:102D06001820963173084001C2007208C10071088C
:102D1600C0007008BF003E30A3008030A200003023
:102D2600A1000030A0004208A7004108A600400804
:102D3600A5003F08A4008D31C52596314001230822
:102D4600C2002208C1002108C0002008BF003D08BB
:102D5600B900BA01BB01BC013C08F3003B08F20014
:102D66003A08F1003908F000013080311820963118
:102D760073084001A3007208A2007108A100700840
:102D8600A0004208A7004108A6004008A5003F0889
:102D9600A4008B31BD23963140012308C2002208CE
:102DA600C1002108C0002008BF004208B800410841
:102DB600B7004008B6003F08B500080000304001E3
:102DC6003505BD0000303605BE0080303705BF0032
:102DD6007F303805C00040083F043E043D04031D13
:102DE600F52EF62EFE2E0030B8000030B70000306B
:102DF600B6000030B50000303905BD0000303A0598
:102E0600BE0080303B05BF007F303C05C000400857
:102E16003F043E043D04031D112F122F1A2F0030CC
:102E2600BC000030BB000030BA000030B900B81F4B
:102E36001D2F1E2F362F0030BD000030BE00003083
:102E4600BF008030C0003508BD023608BE3B3708DB
:102E5600BF3B3808C03B4008B8003F08B7003E08F3
:102E6600B6003D08B500BC1F392F3A2F522F00304F
:102E7600BD000030BE000030BF008030C000390801
:102E8600BD023A08BE3B3B08BF3B3C08C03B40087E
:102E9600BC003F08BB003E08BA003D08B9008030C0
:102EA600B8068030BC063C083802031D642F3B0878
:102EB6003702031D642F3A083602031D642F3908B2
:102EC60035020318672F682F6A2F03106B2F031420
:102ED60008004001A201A301A001A101762F013043
:102EE600F6070030F73D7608840077088500120063
:102EF600203A03197F2F802F722F760884007708D7
:102F060085000008F73EF800FF3003180030F9008E
:102F160000307902053003197802031C932F942F91
:102F2600722F9F2F01304001A0000030A100013018
:102F3600F6070030F73DD42F760884007708850021
:102F46000008F800F9017908003A0319AB2FD42FCD
:102F560078082B3A03199A2F063A0319952FD42F7E
:102F660076088400770885000008F80040012308E9
:102F7600F1002208F0000A30F2000030F30091312F
:102F8600C42197317108FA0078087002F900031C11
:102F9600FA037908303E4001A20000307A3DA300D2
:102FA6009A2F76088400770885000008D03EF8003E
:102FB600FF3003180030F900003079020A30031997
:102FC6007802031CE72FE82FB32F400120082104C5
:102FD600031DEE2FEF2FFB2F2209F8002309F9001E
:102FE600F80A0319F90A7808F6007908F700FF2F9E
:102FF6002308F7002208F6000800543465346D34BF
:1030060070342034253432342E343234663400346D
:1030160069346E34663400346E3461346E34003490
:020000040001F9
:0A000E00EA3F3D3F9F3FFF3FFF3FE9
:00000001FF
