:08000000803102288731E32F53
:10099600FE0012001E00FE0BCC2C00344301111485
:1009A6001118D62CD72CD32C080043011115111978
:1009B600DD2CDE2CDA2C0800430191149118E42C6E
:1009C600E52CE12C0800F20040019A1072088731EC
:1009D600922784310800F20040019A147208873188
:1009E6009227843108004E010F104301911211160F
:1009F6004E010F1CFF2C002DFB2C08004E010F1082
:100A06004301911611164E010F1C0A2D0B2D062DB2
:100A1600080051010D088F3960388D00F0308D05C2
:100A26001308F839023893000800F0004E010F1041
:100A3600700843018C004E010F1C222D232D1E2D04
:100A460008004E010F10430191154E010F1C2C2D6D
:100A56002D2D282D43010C08080032343034303453
:100A66003334313439340034313430343534383475
:100A7600343435340034FF30400193000F30940095
:100A8600FF309500E7307E01CE000F30D900F930F7
:100A9600E400080014307D01C50015307E01A30076
:100AA6001430A40013307D01C600803043018F004E
:100AB60028309000920109308D0008006E2D7308D1
:100AC60084007408850000088431EE2485310130E5
:100AD600F3070030F43D73088400740885001200A3
:100AE600031D762D772D622D08008431D1248531A2
:100AF600D03085311825853100308531182585316E
:100B06007D088531182585317C0885311825853184
:100B16007B088531182585318431D8248531080034
:100B26008431D1248531D030853118258531043082
:100B36008531182585317A0885311825853179085A
:100B460085311825853140013608853118258531CE
:100B56008431D824853108008431D1248531D030C0
:100B66008531182585310030853118258531843148
:100B7600DF248531D130853118258531853124250D
:100B86008531FD008431F624853185312425853172
:100B9600FC008431F6248531853124258531FB001E
:100BA6008531012585318431D82485310800843189
:100BB600D1248531D03085311825853104308531F1
:100BC600182585318431DF248531D13085311825CA
:100BD6008531853124258531FA008431F624853125
:100BE600853124258531F9008431F6248531853116
:100BF600242585314001B6008531012585318431B2
:100C0600D82485310800F700182E7708FF3EF60035
:100C16002E2E77083F3EF6002E2E7708133EF6005E
:100C26002E2E7708533EF6002E2E7308F400F5019B
:100C36007508003A0319202E082E7408013A031984
:100C4600082E033A03190C2E013A0319102E073AFF
:100C56000319142E082E760880388431E62486314E
:100C66000800F1010F30F0007108203E8600870170
:100C7600700881050130F0007008F1070730710235
:100C8600031C462E472E352E40012008F000033067
:100C9600F035FF3E031D4B2E70352107FA00220862
:100CA600F0000330F035FF3E031D552E7035230747
:100CB600F9002408F0000330F035FF3E031D5F2ED7
:100CC60070352507B6000800F1010F30F0007108F5
:100CD600273E86008701700881050130F000700804
:100CE600F10707307102031C792E7A2E682E400117
:100CF6002708F0000330F035FF3E031D7E2E7035C9
:100D06002807FB002908F0000330F035FF3E031DDD
:100D1600882E70352A07FC002B08F0000330F035CA
:100D2600FF3E031D922E70352C07FD000800400182
:100D36009413141394121412951015119A101A1173
:100D460099131913991219124130F300EE30890BD9
:100D5600AA2EF30BAA2E003202308431E624863105
:100D660028308431E62486310C308431E6248631FD
:100D760006308431E624863101308431E62486311A
:100D86000230F4008630F3009930890BC82EF30B3D
:100D9600C82EF40BC82E000008007B08F3000430B0
:100DA600F336890BD32E7308303E8431EE24863118
:100DB6007B080F39303E8431EE2486313A30843157
:100DC600EE2486317C08F3000430F336890BE82ED6
:100DD6007308303E8431EE2486317C080F39303E6C
:100DE6008431EE2486313A308431EE2486317D0812
:100DF600F3000430F336890BFD2E7308303E843140
:100E0600EE2486317D080F39303E8431EE2486315A
:100E160008007A08F3000430F336890B0F2F7308A5
:100E2600303E8431EE2487317A080F39303E8431E2
:100E3600EE2487312F308431EE2487317908F30090
:100E46000430F336890B242F7308303E8431EE24A8
:100E5600873179080F39303E8431EE2487312F30BF
:100E66008431EE24873140013608F3000430F3362E
:100E7600890B3A2F7308303E8431EE2487314001C6
:100E860036080F39303E8431EE248731080085312B
:100E96003E25873185310C25873186319A26873163
:100EA60085314D258731863167268731853178250D
:100EB6008731863134268731853193258731F30191
:100EC600F30A02308631062687310030F300883077
:100ED600F4008531612587318531AF25873186312B
:100EE600D02687310230F30002308631062687315C
:100EF6000730F3008830F40085316125873185316C
:100F0600DA25873187310C2787318230F800DE30C9
:100F1600890B8B2FF80B8B2F622F80310228F10063
:100F2600711E962F972F9A2F400199179C2F4001DB
:100F36009913F11E9F2FA02FA22F1917A32F191354
:100F4600711FA62FA72FA92F9916AA2F9912F11F45
:100F5600AD2FAE2FB02F1916B12F19121A1500008A
:100F660040011A117108F0000330F035FF3E031DF1
:100F7600B82F7035F100711EC12FC22FC42F9917DB
:100F8600C52F9913F11EC82FC92FCB2F1917CC2F98
:100F96001913711FCF2FD02FD22F9916D32F991235
:100FA600F11FD62FD72FD92F1916DA2F19121A1586
:100FB600000040011A111030890BDF2F00320800A3
:100FC6003030840085308500203086000030870070
:100FD6000E308431CB248731F901FA01FB01FC0183
:100FE600FD01AE01AF01B001B101B201B301B4011F
:100FF600B501B601400187314A2F48346F34723447
:101006006134203420340034463465346334683423
:06101600613420340034B7
:020000040001F9
:0A000E00EA3F3D3F9F3FFF1FFF3F09
:00000001FF
