:08000000803102288731FD2F39
:100DB4004F0196019701980199019A019B0108003E
:100DC400603051018D008F01910105309300920133
:100DD40008008631DA2686318731C3278631863189
:100DE400E2268631080002308731672786312830B1
:100DF4008731672786310C30873167278631803009
:100E040087316727863101308731672786310800AB
:100E1400172F780884007908850000088731942703
:100E240087310130F8070030F93D780884007908EB
:100E340085001200031D1F2F202F0B2F0800863161
:100E4400EB2687318631F52687310030F80088306B
:100E5400F90087310A278731C03087316727873106
:100E64000D30F8008830F90087310A278731392F8F
:100E740080310228F1000730F0007008F2004001D0
:100E84009711971200000130F000720A4A2FF035D2
:100E9400890B492F70087105031D512F522F552FAF
:100EA40040011712572F40011716000040019715F3
:100EB40000000130F202720A031D612F622F412FDC
:100EC40040019711971600000800F5007508F039E5
:100ED400F3007308F6007508F3000330F335FF3EA2
:100EE400031D702F7335F039F4007408F700760889
:100EF400023887313C278731760887313C27873190
:100F04007708023887313C278731770887313C27B7
:100F140087310B30F3006230890B8E2FF30B8E2F49
:100F240000320800F5007508F039F3007308F60084
:100F34007508F3000330F335FF3E031D9D2F733511
:100F4400F039F4007408F7007608033887313C2739
:100F540087317608013887313C2787317708033891
:100F640087313C2787317708013887313C2787311F
:100F74000B30F3006230890BBD2FF30BBD2F003211
:100F8400080040019A0199019601970198010730E0
:100F94009500FF309100C7309200FF309300FF307E
:100FA4009400FF307E01D900FF30CE00FF30C30033
:100FB4000730E400FF30B800DA01E501C401B901EB
:100FC400CF01E601BA01C501D001DB01FF30BB004E
:100FD400FF30C600FF30D100FF30DC000730E700EF
:100FE400FF30BC00FF30C700FF30D200FF30DD000F
:100FF4000F30E800080040018731212F203453349A
:1010040055345334433452344934423445345434DB
:101014004534203400342034203441344C342034DA
:0C102400433441344E3441344C34003429
:020000040001F9
:0A000E00EC3FFF3F9F3FFF3FFF3F25
:00000001FF
