:08000000803102288731FD2F39
:100EE2008731A02787318731782787310800510160
:100EF2000D088F3960388D00F0308D051308F839F0
:100F0200023893000800873171278731CE30F00014
:100F12000030F1000A30F9007908F2008731C62763
:100F220087310630FA001330F900AE30890B972F63
:100F3200F90B972FFA0B972F9D2F80310228400132
:100F420096019701980199019A01FF309100E730CB
:100F52009200BF309300FF309400FF309500FF30C5
:100F62007E01B800E730C300FF30CE00FF30D90069
:100F7200FF30E400B901C401CF01DA01E501BA0191
:100F8200C501D001DB01E6010800F701F801EF2FEE
:100F92004001971100000130F3000030F400770A9D
:100FA200D42FF335F40D890BD22F70087305F50099
:100FB20071087405F60075087604031DE12FE22F0F
:100FC200E52F40011712E72F4001171600004001DC
:100FD200971500000130F7070030F83D7208F30062
:100FE200F40174087802031DF82F73087702031CBA
:0E0FF200FB2FFC2FC92F080040018731842FF0
:020000040001F9
:0A000E00EA3F3D3F9F3FFF1FFF3F09
:00000001FF
