:10000000803102288731E82F08004101CE004001ED
:100010006E084101D00040016D084101CF001A284F
:10002000CF304001DF006F08E00041014E088A3107
:100030009D22803141014F08840050088500120044
:10004000031D2328242810284001ED01EE0108009B
:10005000770880394001A4007735AB00F61F3128BE
:10006000322833282B142B0803193728382848281E
:100070002B0A031D3C283D2845280030F70000309E
:10008000F6000030F5000030F400F617F7015028B4
:100090000030F7000030F6000030F5000030F400CA
:1000A00073088039F8007808A4067335AC00F21F95
:1000B0005A285B285C282C142C0803196028612816
:1000C00071282C0A031D652866286E280030F3006D
:1000D0000030F2000030F1000030F000F217F301C0
:1000E00079280030F3000030F2000030F1000030D9
:1000F000F0007308720471047004031D80288128C5
:100100009A280030F7000030F6000030F50000308B
:10011000F4008030F6047F30F7042408F8007808F3
:10012000F7047708F3007608F2007508F100740808
:10013000F000D1292B08031D9E289F28A8280030F5
:10014000F3000030F2000030F1000030F000D1295F
:100150002B08F800F9017908FB002C087802FA0056
:10016000031CFB037A087F3EA50000307B3DA60000
:100170007708A3007608A2007508A1007408A00003
:100180000030F7000030F6000030F5000030F400D9
:100190000030AA000030A9000030A8000030A700FD
:1001A000AC0110292C080319D628D728F1280130D2
:1001B000A035A10DA20DA30D890BD8280130F4356F
:1001C000F50DF60DF70D890BDF28AA1FE828E928A1
:1001D000EA2874140130A735A80DA90DAA0D890BC2
:1001E000EB2873082302031DFF2872082202031D57
:1001F000FF2871082102031DFF2870082002031C3C
:10020000022903290C292A177008A0027108A13BB2
:100210007208A23B7308A33B0130F8007808AC07D2
:100220001A302C02031C15291629D228230822046F
:100230002104200403191D291E29372927143729D1
:100240000130F435F50DF60DF70D890B2129AA1FA4
:100250002A292B292C2974140130A735A80DA90DA2
:10026000AA0D890B2D29FF30A507FF30A63DF61FEB
:100270003A293B292029AC01AA1F3F2940295C29A2
:10028000FF302705F800FF302805F900FF30290569
:10029000FA007F302A05FB007B087A047904780491
:1002A0000319532954295729AC01AC0A5C29741C41
:1002B0005A295B295C2954292C08031960296129D2
:1002C00089290130F4070030F53D0030F63D00305B
:1002D000F73D771C6C296D2989297408F800750889
:1002E000F9007608FA007708FB000130FC00FB37C4
:1002F000FA0CF90CF80CFC0B77297B08F7007A084C
:10030000F6007908F5007808F4000130A507003000
:10031000A63D2608803AF80080307802031D922915
:10032000FF302502031C95299629A329FF3040019F
:10033000A5000030A6000030F7000030F6000030C5
:10034000F5000030F40040012608803AF8008030C3
:100350007802031DAD29013025020318B029B12907
:10036000BD294001A501A6010030F7000030F600CC
:100370000030F5000030F400A40140012508AB0076
:100380002B1CC329C429C629F617CA297F30F800B7
:100390007808F6052B36F7002408F8007808F704EB
:1003A000912808004101AF00C201400159084101F4
:1003B000C800400158084101C700400157084101E9
:1003C000C600400156084101C50048084001BD0073
:1003D000410147084001BC00410146084001BB0003
:1003E000410145084001BA000030C1000030C000A2
:1003F0000030BF000030BE009731752781310318EF
:10040000022A032A1A2A4101C201C20A4808F3003B
:100410004708F2004608F1004508F0009331352303
:10042000813173084101C8007208C7007108C60015
:100430007008C5004101C301C4016C08B3006B081A
:10044000B20042080319252A262A362A4208031D2B
:100450002A2A2B2A302A2B30A6000030A700342A63
:100460002D30A6000030A7002608C2004808F3007F
:100470004708F2004608F1004508F0009631F626DC
:10048000813170037104031D462A472A722A4101F3
:10049000420803194C2A4D2A592A42084301A00058
:1004A000FF304101B207FF30B33D0130C3000030DF
:1004B000C4001C30F0009830F1004308A03E933196
:1004C000BF238131FD304101B207FF30B33DA03081
:1004D000FB003308FD003208FC002F0888310220A1
:1004E0008131E72F41014808F3004708F200460830
:1004F000F1004508F0009631F6268131700871044C
:10050000031D832A842AAF2A410142080319892A3C
:100510008A2A962A42084301A000FF304101B2070F
:10052000FF30B33D0130C3000030C4002030F00084
:100530009830F1004308A03E9331BF238131FD3054
:100540004101B207FF30B33DA030FB003308FD008E
:100550003208FC002F08883102208131E72F3F301C
:100560004101CC008030CB000030CA000030C9000F
:10057000B001B1014808F3004708F2004608F10055
:100580004508F0000030F7000030F6000030F500BC
:100590000030F40095312E2581310318D02AD12A5C
:1005A000132CDF2A41013708CC003608CB00350870
:1005B000CA003408C9000130B0070030B13D4130F5
:1005C0004001A3002030A2000030A1000030A000B4
:1005D00041014C084001A70041014B084001A60021
:1005E00041014A084001A500410149084001A40019
:1005F0008D31C5258131400123084101B7004001FB
:1006000022084101B600400121084101B500400126
:1006100020084101B400340845024001DB004101DB
:100620003508463B4001DC0041013608473B4001AC
:10063000DD0041013708483B4001DE005E08F30061
:100640005D08F2005C08F1005B08F00094313E2484
:100650008131F31B392B7308031D3A2B7208031DDC
:100660003A2B7108031D3A2B02307002031C392B00
:100670003A2BD22A410137084001BD00410136081A
:100680004001BC00410135084001BB004101340874
:100690004001BA00410148084001C100410147083A
:1006A0004001C000410146084001BF00410145082A
:1006B0004001BE00973175278131031C602B612BEF
:1006C000D22A4101490845024001DB0041014A08A4
:1006D000463B4001DC0041014B08473B4001DD0047
:1006E00041014C08483B4001DE005E08F3005D0814
:1006F000F2005C08F1005B08F00094313E24813187
:10070000F31B912B7308031D902B7208031D902B74
:100710007108031D902B023070020318902B912B4F
:10072000EC2B41014C08C8004B08C7004A08C60022
:100730004908C500132C4130F3002030F20000308E
:10074000F1000030F00041014C08F7004B08F600C2
:100750004A08F5004908F4008031282081317308E7
:100760004101CC007208CB007108CA007008C900B2
:10077000FF30B007FF30B13D490845024001DB00C2
:1007800041014A08463B4001DC0041014B08473B20
:100790004001DD0041014C08483B4001DE005E089D
:1007A000F3005D08F2005C08F1005B08F000943192
:1007B0003E248131F31BEB2B7308031DEA2B7208D7
:1007C000031DEA2B7108031DEA2B02307002031887
:1007D000EA2BEB2BEC2B912B410148084001BD008B
:1007E000410147084001BC00410146084001BB00EF
:1007F000410145084001BA0041014C084001C100D7
:1008000041014B084001C00041014A084001BF00BE
:10081000410149084001BE00973175278131031C11
:10082000122C132C9B2B40015A084101A9002908C6
:10083000AA00EE1B1C2C1D2C222C6E08A3006D0898
:10084000A200262C0630A2000030A3002308AE0030
:100850002208AD000130AD070030AE3D66302A06FB
:10086000031D332C342C4C2CB11F372C382C422C2C
:100870003F30CC008030CB000030CA000030C900CF
:10088000B001B101673029060319472C482C4C2CC4
:100890003008AD073108AE3DB801B9014808BD00C8
:1008A0004708BC004608BB004508BA004C08B70022
:1008B0004B08B6004A08B5004908B4000D2D4101A7
:1008C0004C08F3004B08F2004A08F1004908F00018
:1008D0003D08F7003C08F6003B08F5003A08F40034
:1008E00080312820813173084001B0007208AF00C8
:1008F0007108AE007008AD008931B221813140012C
:1009000030084101C10040012F084101C0004001F1
:100910002E084101BF0040012D084101BE004108E1
:10092000F3004008F2003F08F1003E08F000963165
:100930008626813171084101AC007008AB004C087B
:100940004001A70041014B084001A60041014A08AF
:100950004001A500410149084001A40041014108AE
:100960004001A300410140084001A20041013F08AD
:100970004001A10041013E084001A0008D31C52584
:10098000813140012308D1002208D0002108CF0086
:100990002008CE0041013D084001D50041013C083E
:1009A0004001D40041013B084001D30041013A0815
:1009B0004001D2009331FD238131400151084101B2
:1009C000BD00400150084101BC0040014F084101F9
:1009D000BB0040014E084101BA004130F300203015
:1009E000F2000030F1000030F0004C08F7004B0836
:1009F000F6004A08F5004908F400803128208131CA
:100A000073084101CC007208CB007108CA0070085D
:100A1000C9000130B8070030B93D3908803A4001BB
:100A2000DB0041012E08803A40015B02031D1B2DB3
:100A300041012D083802031C1E2D1F2D5F2C403054
:100A40004001A300A030A2000030A1000030A000AF
:100A500041014C084001A70041014B084001A6009C
:100A600041014A084001A500410149084001A40094
:100A70008D31C5258131400123084101C10040016C
:100A800022084101C000400121084101BF0040018E
:100A900020084101BE003D084001BD0041013C0865
:100AA0004001BC0041013B084001BB0041013A0844
:100AB0004001BA00410141084001C1004101400824
:100AC0004001C00041013F084001BF0041013E0814
:100AD0004001BE009731752781310318702D712DAB
:100AE0007B2D00304101C1000030C0000030BF004C
:100AF0000030BE00A02D41013D08F3003C08F2008B
:100B00003B08F1003A08F0004108F7004008F60001
:100B10003F08F5003E08F40095312E258131031C75
:100B2000922D932DA02D41012B18972D982DA02D9E
:100B30000030C1000030C0000030BF000030BE00F7
:100B4000410141084001BD00410140084001BC0095
:100B500041013F084001BB0041013E084001BA008D
:100B6000410148084001C100410147084001C0005F
:100B7000410146084001BF00410145084001BE0057
:100B80008B31BD23813140013D084101BD00400151
:100B90003C084101BC0040013B084101BB00400151
:100BA0003A084101BA003D084001BD0041013C083E
:100BB0004001BC0041013B084001BB0041013A0833
:100BC0004001BA004130A3002030A2000030A10053
:100BD0000030A000410137084001A700410136085C
:100BE0004001A600410135084001A500410134083B
:100BF0004001A4008D31C525813140012308C10089
:100C00002208C0002108BF002008BE0097317527C8
:100C10008131031C0C2E0D2E482E01304101B007EE
:100C20000030B13D41304001A3002030A20000302F
:100C3000A1000030A000410137084001A700410198
:100C400036084001A600410135084001A5004101D8
:100C500034084001A4008D31C525813140012308AD
:100C60004101B700400122084101B60040012108BE
:100C70004101B500400120084101B40066302A0658
:100C8000031D432E442E482E0130AD070030AE3DEB
:100C900041013708CC003608CB003508CA003408BB
:100CA000C9003108A1003008A000A801A401A501D5
:100CB000B801B901712F41014C08F3004B08F20053
:100CC0004A08F1004908F0003D08F7003C08F6002A
:100CD0003B08F5003A08F400803128208131730880
:100CE0004001B0007208AF007108AE007008AD009E
:100CF0008931B2218131400130084101C1004001F8
:100D00002F084101C00040012E084101BF004001F1
:100D10002D084101BE004108F3004008F2003F08E1
:100D2000F1003E08F0009631862681317108803A44
:100D30004001DB0080305B02031DA02E0A307002F0
:100D40000318A32EA42EB62E41014108F30040083B
:100D5000F2003F08F1003E08F0009631862681310E
:100D600071084101AC007008AB00BB2E0930410195
:100D7000AB000030AC002808031DBF2EC02EE92EAA
:100D8000A11FC32EC42EE92E4308A03E86000130C9
:100D900087002E3081000130C3070030C43DFF3092
:100DA000B207FF30B33DA801A80AE92E4308A03ED0
:100DB000860001308700303081000130C3070030E9
:100DC000C43DFF30B207FF30B33DFF30A407FF3012
:100DD000A53D24082504031DEE2EEF2ED62E430834
:100DE000A03E8600013087002B08303E8100013094
:100DF000C3070030C43DFF30B207FF30B33D4C089D
:100E00004001A70041014B084001A60041014A08EA
:100E10004001A500410149084001A40041014108E9
:100E20004001A300410140084001A20041013F08E8
:100E30004001A10041013E084001A0008D31C525BF
:100E4000813140012308D1002208D0002108CF00C1
:100E50002008CE0041013D084001D50041013C0879
:100E60004001D40041013B084001D30041013A0850
:100E70004001D2009331FD238131400151084101ED
:100E8000BD00400150084101BC0040014F08410134
:100E9000BB0040014E084101BA004130F300203050
:100EA000F2000030F1000030F0004C08F7004B0871
:100EB000F6004A08F5004908F40080312820813105
:100EC00073084101CC007208CB007108CA00700899
:100ED000C900FF30A007FF30A13D0130B807003046
:100EE000B93D3908803A4001DB0041012E08803AC3
:100EF00040015B02031D7F2F41012D0838020318BA
:100F0000822F832F932F41014408803A4001DB0058
:100F100080305B02031D8F2F4B3041014302031CC5
:100F2000922F932F5B2E4F304101B8000030B90053
:100F30003808A03E8600013087008101A030F00013
:100F40004408F2004308F100A0304001DB004101F9
:100F5000430840015B02410138079431CD248131BF
:100F6000410143083802C3004408393BC400420829
:100F7000031DBB2FBD2F0130BE2F00304001DB0011
:100F8000DC015B084101B80040015C084101B90087
:100F900042080319CC2FCD2FD82FFF30C307FF30C5
:100FA000C43D4308A03E860001308700420881000E
:100FB0003808B2023908B33B4308A03EFB003308AF
:100FC000FD003208FC002F08883102208131080022
:100FD000E730840000308500093093311E238731CB
:100FE0004201B401B501B601B701A030840001305F
:100FF0008500503093311E23873140018831F42819
:101004004001A90041016F1C08280928102840014B
:101014002908F8007B089431A8248831FD1B132883
:1010240014281A287D084001A8007C08A7001D2860
:101034004001A701A801A501A6012F282030F00036
:101044000030F10040012908F20095317C258831F7
:1010540001304001A5070030A63D2608803AA400CF
:101064002808803A2402031D392827082502031C76
:101074003C283D28202841016F184128422849284E
:1010840040012908F8007B089431A824883108001D
:10109400F800780803194F2850286428F31F5328B0
:1010A400542864287009FA007109FB007209FC00D5
:1010B4007309FD00FA0A0319FB0A0319FC0A031950
:1010C400FD0A6C287308FD007208FC007108FB001F
:1010D4007008FA007308720471047004031D732805
:1010E40074287D280030F3000030F2000030F10055
:1010F4000030F000F3289630F9008B280130F4001A
:101104007408F9070130FD36FC0CFB0CFA0C890B52
:101114008528FE307D05031D902891288028A52868
:101124000130F4007408F9070130FA070030FB3D80
:101134000030FC3D0030FD3D0130FD36FC0CFB0C65
:10114400FA0C890B9F28FF307D05031DAA28AB28C4
:101154009228B5280130F9020130FA35FB0DFC0D57
:10116400FD0D890BAF28FC1BB828B928BF28023015
:1011740079020318BE28BF28AC287918C228C328CE
:10118400CB28FF30FA05FF30FB057F30FC05FF302C
:10119400FD050310F90C7908F400F501F601F701D7
:1011A4001830F435F50DF60DF70D890BD3287408B6
:1011B400FA047508FB047608FC047708FD04780833
:1011C4000319E528E628EB28F31FE928EA28EB2889
:1011D400FD177D08F3007C08F2007B08F1007A0813
:1011E400F00008009331402388319531CD258831B2
:1011F400023093318C2388310E30F3009830F400A0
:1012040093315D238831C03093318C238831003091
:1012140093314D23883171084201B3007008B20044
:101224003B304001A300A030A2002830A1000A30C6
:10123400A00042013208F0003308F100F201F3018A
:10124400003088314A20883173084001A7007208B1
:10125400A6007108A5007008A4008D31C525883149
:10126400400123084201AD00400122084201AC00C4
:10127400400121084201AB00400120084201AA00BC
:10128400C2304001BD004830BC000030BB0000301B
:10129400BA004230A300C830A2000030A1000030E0
:1012A400A00042012D084001A70042012C08400182
:1012B400A60042012B084001A50042012A08400172
:1012C400A4008D31C525883140012308C1002208BE
:1012D400C0002108BF002008BE008B31BD23883127
:1012E40040013D084201B10040013C084201B00008
:1012F40040013B084201AF0040013A084201AE0000
:1013040000304101D1009830D2004201310841013E
:10131400D600420130084101D50042012F084101A5
:10132400D40042012E084101D300203094311D2401
:1013340088312030F3000130F40093315D2388318B
:1013440003304101E6008A30E5005530890BA829B5
:10135400E50BA829E60BA8290032FA2880310228D7
:10136400420137084001C000420136084001BF0075
:10137400420135084001BE00420134084001BD006D
:101384003008C0002F08BF002E08BE002D08BD0085
:101394003D08B1003E08B2003F08B3004008B40065
:1013A4001730B436B30CB20CB10C890BD329FF300F
:1013B4003105B50000303205B6003508813EBB006A
:1013C400FF30363DBC003C08803AB1008030310229
:1013D400031DEE2917303B02031CF129F229F329DE
:1013E4009C2A4001BC1BF729F829552AFF30B1007B
:1013F400FF30B2007F30B3000030B4003B0A062A4D
:10140400B437B30CB20CB10C890B022A3408BA00FD
:101414003308B9003208B8003108B7003D08370571
:10142400B1003E083805B2003F083905B300400852
:101434003A05B4003408330432043104031D232A6A
:10144400242A252AF2293D08B1003E08B2003F08AB
:10145400B3004008B4001F30B436B30CB20CB10C66
:10146400890B2E2A340833043204310403193B2A2D
:101474003C2A442A3708BD073808BE3D3908BF3D19
:101484003A08C03D3709B1003809B2003909B30040
:101494003A09B4003108BD053208BE053308BF055A
:1014A4003408C005942A3D08B1003E08B2003F0844
:1014B400B3004008B4001F30B436B30CB20CB10C06
:1014C400890B5E2A3408330432043104031D6B2A69
:1014D4006C2A752A0030C0000030BF000030BE0006
:1014E4000030BD00942A3D08B1003E08B2003F0818
:1014F400B3004008B4000130B135B20DB30DB40DE2
:10150400890B7E2A340833043204310403198B2AEC
:101514008C2A942ABF30C0008030BF000030BE0047
:101524000030BD004008B0003F08AF003E08AE00E8
:101534003D08AD0008004001E9005F08860087010E
:10154400403FE100413FE2006108840062088500F9
:101554001200253A031DAF2AB02AA42B5F08860087
:1015640087010130810741310318810A4101EB01F0
:10157400EC010310003003180130EF00FF30ED00E0
:10158400FF30EE0040016008F6005F089631262621
:101594008A3177084101EC007608EB00EC1FD32A6E
:1015A400D42ADA2A6F14EB09EC09EB0A0319EC0AC2
:1015B40040015F0886008701403FE100413FE200AF
:1015C400610884006208850012002E3A031DEB2A8C
:1015D400EC2AFF2A5F088600870101308107413128
:1015E4000318810A6008F6005F08963126268A31BE
:1015F40077084101EE007608ED0040015F0886009F
:101604008701403FEB00413FEC006B0884006C080D
:1016140085000008EA00182B0130EB070030EC3D90
:101624002B2B6C30EA002B2BEA012B2B6A08E100F0
:10163400E2016208003A0319202B162B61084C3A88
:1016440003190E2B2A3A0319132B0A3A03190E2BEA
:10165400162B6B0884006C0885001200663A031D83
:10166400342B352B9A2B582B6008860087010108F0
:101674008400850104308107003FE500013FE60056
:10168400023FE700033FE800682B600886008701FB
:1016940001088400850104308107003FE500013F13
:1016A400E600023FE700033FE800682B6A08E10018
:1016B400E2016208003A0319602B682B61084C3A76
:1016C4000319472B203A0319362B682B6B08013E6C
:1016D400E10000306C3DE2005F088600870161088C
:1016E400C03F6208C13F892B6808D9006708D80049
:1016F4006608D7006508D6006B0884006C0885006E
:101704000008DA0069088131D2218A31BC2B6B08C8
:1017140084006C0885000008E100E2016208003AD8
:101724000319952B9A2B6108663A0319762B9A2B89
:1017340040015F08860087010130810741310318A9
:10174400810ABC2B5F0886008701403FE100413FCE
:10175400E20061088400620885000008E300E401F7
:101764006308F0006408F1006908F20095317C25F3
:101774008A319A2B080040013D088039CA003D3562
:10178400CC00BC1FC62BC72BC82B4C144C08031908
:10179400CC2BCD2BDD2B4C0A031DD12BD22BDA2BDA
:1017A4000030BD000030BC000030BB000030BA0087
:1017B400BC17BD01E52B0030BD000030BC0000307B
:1017C400BB000030BA0041088039CB004B084A0600
:1017D4000319ED2BEE2BEF2B4A174135CB00C01F1D
:1017E400F42BF52BF62B4B144B080319FA2BFB2B7C
:1017F4000B2C4B0A031DFF2B002C082C0030C100BE
:101804000030C0000030BF000030BE00C017C1016E
:10181400132C0030C1000030C0000030BF00003085
:10182400BE004C084B020318182C192C3F2C4A1FDD
:101834001C2C1D2C212C8030C2004208CA064C08E6
:10184400CD004B08CC004D08CB003A08CD003E0833
:10185400BA004D08BE003B08CD003F08BB004D0850
:10186400BF003C08CD004008BC004D08C0003D0846
:10187400CD004108BD004D08C100CD014B08C20098
:10188400C3014308C5004C084202C400031CC5033D
:101894004508803AC60080304602031D532C1A3096
:1018A4004402031C562C572C892C40013D083C044F
:1018B4003B043A04031D5F2C612C0130622C003080
:1018C400CD000030BD000030BC000030BB00003053
:1018D400BA004B08CC00902C4D1C712C722C762C29
:1018E4004D360138CD00782C0310CD0C3A1C7B2CDE
:1018F4007C2C7D2CCD170130C200BD37BC0CBB0C39
:10190400BA0CC20B7F2C0130C2004208CC07400144
:101914004B084C02031C8F2C902C6E2C4A1B932CCE
:10192400942CCA2C4C08031D982C992CA22C003002
:10193400BD000030BC000030BB000030BA00C42D34
:101944003E08BA073F08BB3D4008BC3D4108BD3DC9
:101954003D1CAD2CAE2C562D4D1CB12CB22CB62CEE
:101964004D360138CD00B82C0310CD0C3A1CBB2CDD
:10197400BC2CBD2CCD170130C200BD37BC0CBB0C38
:10198400BA0CC20BBF2C0130C2004208CC07562D42
:101994003D08803AC2004108803A4202031DDC2C13
:1019A40040083C02031DDC2C3F083B02031DDC2CD9
:1019B4003E083A020318DF2CE02C182DFF30C20039
:1019C400FF30C300FF30C400FF30C5003A083E02B8
:1019D400C6003B083F3BC7003C08403BC8003D08ED
:1019E400413BC9004608C2074708C33D4808C43DF7
:1019F4004908C53D4508BD004408BC004308BB0078
:101A04004208BA008030C2004208CA06CD09CD0A95
:101A14004D08031D0E2D0F2D202D0130BA07003067
:101A2400BB3D0030BC3D0030BD3D202D3E08BA0218
:101A34003F08BB3B4008BC3B4108BD3B3D083C0460
:101A44003B043A04031D272D282D522D4D08031D58
:101A54002C2D2D2D522D0030BD000030BC00003047
:101A6400BB000030BA00C42D0130BA35BB0DBC0D2B
:101A7400BD0D890B372DCD1F402D412D422D3A141C
:101A84004D1C452D462D492D0314CD0D4B2D031012
:101A9400CD0D4C0803194F2D502D522D0130CC0281
:101AA400BC1F552D562D362DCB01CD1F5A2D5B2D28
:101AB400692D4D087F390319602D612D642DCB01EB
:101AC400CB0A692D3A1C672D682D692D612D4B08B1
:101AD40003196D2D6E2D9B2D0130BA070030BB3DCF
:101AE4000030BC3D0030BD3D3D1C792D7A2D9B2D31
:101AF4003A08C2003B08C3003C08C4003D08C500C6
:101B04000130C600C537C40CC30CC20CC60B842DEF
:101B14004508BD004408BC004308BB004208BA00A5
:101B24004C0A0319962D972D9B2D0130C2004208B3
:101B3400CC074C0A03199F2DA02DA52D4C08031D7D
:101B4400A42DA52DB32D0030BD000030BC00003005
:101B5400BB000030BA004C08031DB12DB22DB32DCB
:101B6400CA014C1CB62DB72DB92DBC17BD2D7F3025
:101B7400C2004208BC054C36BD00CA1FC22DC32D8D
:101B8400C42DBD170800400123088039AD0023355A
:101B9400B300A21FCE2DCF2DD02D3314330803193B
:101BA400D42DD52DE42D330A031DD92DDA2DE22DA4
:101BB4000030A3000030A2000030A1000030A000DB
:101BC400A217EC2D0030A3000030A2000030A100C9
:101BD4000030A00027088039A8002808AD06273562
:101BE400B200A61FF62DF72DF82D32143208031972
:101BF400FC2DFD2D0C2E320A031D012E022E0A2E61
:101C04000030A7000030A6000030A5000030A4007A
:101C1400A617142E0030A7000030A6000030A5003F
:101C24000030A40032080319182E192E1E2E330872
:101C3400031D1D2E1E2E272E0030A3000030A200EF
:101C44000030A1000030A000FF2F2008F00026087B
:101C5400943160248D3171084001B9007008B800D6
:101C64003808A800A901AA01AB012B08B1002A0871
:101C7400B0002908AF002808AE003908A800A9015F
:101C8400AA01AB012B08B7002A08B6002908B50041
:101C94002808B4002108F0002508943160248D310F
:101CA40071084001B9007008B8003808A800A901FB
:101CB400AA01AB012808AE072908AF3D2A08B03DA8
:101CC4002B08B13D3908A800A901AA01AB012808D5
:101CD400B4072908B53D2A08B63D2B08B73D2208AC
:101CE400F0002408943160248D3171084001B9005A
:101CF4007008B8003808A800A901AA01AB01280897
:101D0400AE072908AF3D2A08B03D2B08B13D39087C
:101D1400A800A901AA01AB012808B4072908B53D08
:101D24002A08B63D2B08B73D0830AE35AF0DB00DCF
:101D3400B10D890B972E2108F000240894316024FA
:101D44008D3171084001B9007008B8003808AE0739
:101D54003908AF3D0030B03DB13D2008F000250802
:101D6400943160248D3171084001B9007008B800C5
:101D74003808AE073908AF3D0030B03DB13D0830FA
:101D8400AE35AF0DB00DB10D890BC22E2008F00099
:101D94002408943160248D3171084001B900700821
:101DA400B8003808AE073908AF3D0030B03DB13D4A
:101DB4002108F0002608943160248D317108400117
:101DC400B9007008B8003808B4073908B53D0030C8
:101DD400B63DB73D2208F0002508943160248D31CA
:101DE40071084001B9007008B8003808B407390810
:101DF400B53D0030B63DB73D2208F00026089431C9
:101E040060248D3171084001B9007008B8003808A9
:101E1400A8003908A900AA01AB010830A835A90D0A
:101E2400AA0DAB0D890B102F2808B4072908B53D5E
:101E34002A08B63D2B08B73D2E08A8002F08A90094
:101E44003008AA003108AB001830AB36AA0CA90C34
:101E5400A80C890B272F2808B4072908B53D2A08A0
:101E6400B63D2B08B73D0830AE35AF0DB00DB10D02
:101E7400890B362F33083207A800A901A90D2808B9
:101E8400823EB800FF30293DB9005F2F0130B435E0
:101E9400B50DB60DB70D890B492FB11F522F532F16
:101EA400542F34140130AE35AF0DB00DB10D890B84
:101EB400552FFF30B807FF30B93DB61F622F632F8F
:101EC400482FB201B11F672F682F842FFF302E05D2
:101ED400A800FF302F05A900FF303005AA007F308D
:101EE4003105AB002B082A042904280403197B2F8D
:101EF4007C2F7F2FB201B20A842F341C822F832FB0
:101F0400842F7C2F32080319882F892FB12F013099
:101F1400B4070030B53D0030B63D0030B73D371C46
:101F2400942F952FB12F3408A8003508A90036083E
:101F3400AA003708AB000130AC00AB37AA0CA90CDF
:101F4400A80CAC0B9F2F2B08B7002A08B600290851
:101F5400B5002808B4000130B8070030B93D39088D
:101F6400803AA80080302802031DBA2FFF303802BF
:101F7400031CBD2FBE2FC82F7F304001B700803017
:101F8400B6000030B5000030B400F32F400139082A
:101F9400803AA80080302802031DD22F0130380275
:101FA4000318D52FD62FE12F00304001B7000030A1
:101FB400B6000030B5000030B400AD01F32F40018D
:101FC4003808B300FF30B405FF30B5057F30B605DF
:101FD4000030B705331CEF2FF02FF12FB61733362F
:101FE400B7002D08A8002808B7043708A30036084E
:0C1FF400A2003508A1003408A00008007D
:10263C00640080010131890B1F2B00344F0196017E
:10264C009701980199019A019B0108006030510192
:10265C008D008F01910102309300920108007308E4
:10266C0072047104700403193C2B3D2B3F2B8030FA
:10267C00F30608009331242393319431F4249331DD
:10268C0093312C2393319331742393310800F2004E
:10269C00720841019E009317131313141318572B30
:1026AC00582B542B0D08F1000C08F00008006A2B75
:1026BC00730884007408850000089331A5239331B6
:1026CC000130F3070030F43D730884007408850072
:1026DC001200031D722B732B5E2B080042018E011E
:1026EC008F0190019101920193018D0141019E0195
:1026FC009B019C0194019501960197019A01990106
:10270C0001309800843093009D010800F2004001D4
:10271C0090103230890B902B400190100000720801
:10272C00F1000430F136890B982B71089431832415
:10273C00933172080F399431832493310800F200DD
:10274C00400190102130890BA92B000040019014FE
:10275C0000007208F1000430F136890BB22B7108BD
:10276C0094318324933172080F399431832493313B
:10277C000800F7007108F5007008F4007708F600FF
:10278C007608860001308700F60A7508F300740895
:10279C00F200F40A0319F50A720884007308850024
:1027AC000008C03F8908031DDC2BDD2BC62B08005D
:1027BC00F401F501701CE32BE42BE82B7208F407F1
:1027CC007308F53D0130F235F30D890BE92B01301F
:1027DC00F136F00C890BEE2B70087104031DF72BEE
:1027EC00F82BE02B7508F1007408F000080080301D
:1027FC004001D1065508BD005408BC005308BB006D
:10280C005208BA005108C1005008C0004F08BF0060
:10281C004E08BE008B31BD23933140013D08D100E1
:10282C003C08D0003B08CF003A08CE00080041011C
:10283C00D800D330D9005808DA00DC01DD01E301FF
:10284C00E40152084001EE00410151084001ED0045
:10285C00D930EF00DA3080310520943141015C0829
:10286C005807D700570886000130870081010800FF
:10287C00F31B4F2C7308031D4E2C7208031D4E2C9A
:10288C007108031D4E2C0130700203184E2C4F2C76
:10289C005F2C7009F0007109F1007209F2007309E4
:1028AC00F300F00A0319F10A0319F20A0319F30AE7
:1028BC005F2C0800F800F401F5017008F200F30138
:1028CC007208F6007308F700781C6D2C6E2C722CB5
:1028DC007608F4077708F53D0130F635F70D890BCE
:1028EC00732C0310F80C7808031D7D2C7E2C6A2C9D
:1028FC007508F1007408F0000800F000701C872CBB
:10290C00882C8B2C40018F178D2C40018F13F01CC1
:10291C00902C912C932C0F17942C0F13701D972C1B
:10292C00982C9A2C8F169B2C8F12F01D9E2C9F2C62
:10293C00A12C0F16A22C0F12101500000000400144
:10294C00101108004001A300A101A201BE2C200817
:10295C00F900FA017908F0007A08F1007808F20021
:10296C0095317C25943101304001A1070030A23D06
:10297C0021082307F9007908860001308700010837
:10298C00A0002008031DCB2CCC2CAD2C0800F5008E
:10299C007008F7007508F600E72C77088600013000
:1029AC0087000108F4000130F3007308F70776087C
:1029BC00860001308700740881000130F300730831
:1029CC00F6070130F1020030F23B710A031DF22CC4
:1029DC00720A031DF22CF32CD32C080040019A012F
:1029EC00990196019701980107309500FF309100ED
:1029FC00FF309200FF309300FF3094000F307E01C7
:102A0C00D900FF30CE00FF30C3000130E400FF30AE
:102A1C00B800DA01E501C401B901CF01E601BA0140
:102A2C00C501D001DB01FF30BB00FF30C600FF3019
:102A3C00D100FF30DC000730E700FF30BC00FF3076
:102A4C00C700FF30D200FF30DD000F30E800080077
:102A5C0000307005F80000307105F9008030720507
:102A6C00FA007F307305FB007B087A047904780444
:102A7C00031D412D422D4A2D0030F3000030F20091
:102A8C000030F1000030F00000307405F800003028
:102A9C007505F90080307605FA007F307705FB006C
:102AAC007B087A0479047804031D5D2D5E2D662D58
:102ABC000030F7000030F6000030F5000030F40074
:102ACC0077087306031D742D76087206031D742D8A
:102ADC0075087106031D742D740870060319772D83
:102AEC00782D7A2D03107B2D03140800720803191E
:102AFC00802D812D862D7208031D852D862D8B2D05
:102B0C007008803104209531CC2D7208093E860066
:102B1C008701160001040319942D952DB32D72080D
:102B2C00093E86008701403FF300413FF4007208E4
:102B3C00023E86008701403FF500413FF6007608D3
:102B4C00803AF7007408803A7702031DAF2D7308A2
:102B5C0075020318B22DB32DCC2D72088600870197
:102B6C007208023E8400850100080107F300730817
:102B7C00860001308700700881007208023E8600D2
:102B8C0087010130810741310318810A0800400197
:102B9C009510151190101011941314139412141203
:102BAC001A30F300F830890BD92DF30BD92D0032E4
:102BBC00F40103309431832495310730F3007D30D8
:102BCC00890BE62DF30BE62D00000130F3007308A2
:102BDC00F40703307402031CF42DF52DDF2D0230A5
:102BEC0093318C2395310730F3007D30890BFC2D0C
:102BFC00F30BFC2D0000283093318C2395310730DA
:102C0C00F3007D30890B082EF30B082E00000C30DE
:102C1C0093318C2395310730F3007D30890B142EC2
:102C2C00F30B142E0000013093318C2395310730B7
:102C3C00F3007D30890B202EF30B202E00000800B2
:102C4C004001A300A101A201230886008701403F97
:102C5C00F800413FF90078088400790885001200DB
:102C6C002A3A031D3A2E3B2E6D2E2308860087012F
:102C7C000130810741310318810A760886008701EB
:102C8C0001088400850102308107003FA100013F4B
:102C9C00A200812E2008F800F9012208F100210879
:102CAC00F0000A30F2000030F3009331DE2396314D
:102CBC00780870074001A1007908713DA200230833
:102CCC00860087010130810741310318810A2308EE
:102CDC0086008701403FF800413FF90078088400E6
:102CEC00790885000008D03EA0000A302002031CA1
:102CFC00802E812E502E2208F7002108F6000800A5
:102D0C000310720D730DF9007908031D8E2E8F2E92
:102D1C00982E0030F3000030F2000030F10000304B
:102D2C00F000F52E7008F4007108F5007208F6003A
:102D3C007308F7001F30F736F60CF50CF40C890B02
:102D4C00A12E7408F800F217FF30F005FF30F105E2
:102D5C00FF30F2050030F3059630F902F91FB72E5B
:102D6C00B82ED02E7908803A973E0318BE2EBF2E6F
:102D7C00C02E8F2E0130F336F20CF10CF00C890BB7
:102D8C00C12E0130F4007408F907031DCE2ECF2E8E
:102D9C00C02EE52E20307902031CD52ED62EE02E27
:102DAC008F2E0130F035F10DF20DF30D890BD82E6D
:102DBC000130F9027908031DE42EE52ED72E780890
:102DCC000319E92EEA2EF52EF009F109F209F3099F
:102DDC00F00A0319F10A0319F20A0319F30A08009D
:102DEC0041016A084001A500410169084001A400A5
:102DFC00410168084001A300410167084001A2009D
:102E0C007308A5007208A4007108A3007008A20042
:102E1C002208F4002308F5002408F6002508F70022
:102E2C001730F736F60CF50CF40C890B172FFF3016
:102E3C007405A00000307505A10020082104031DB5
:102E4C00282F292F4A2F2208F4002308F5002408E4
:102E5C00F6002508F7000130F435F50DF60DF70DE9
:102E6C00890B322F7708760475047404031D3F2FE9
:102E7C00402F452F0230F0000030F100742F03304A
:102E8C00F0000030F100742F200A2104031D4F2F95
:102E9C00502F702F2208F4002308F5002408F600A8
:102EAC002508F7000930F435F50DF60DF70D890BF3
:102EBC00592F77087604750474040319662F682F4C
:102ECC000130692F0030F800F9017808F00079081A
:102EDC00F100742F0430F0000030F10008000030D5
:102EEC0040013A05C20000303B05C30080303C0570
:102EFC00C4007F303D05C50045084404430442042A
:102F0C00031D892F8A2F922F0030BD000030BC008A
:102F1C000030BB000030BA0000303E05C20000306B
:102F2C003F05C30080304005C4007F304105C5001B
:102F3C004508440443044204031DA52FA62FAE2FBD
:102F4C000030C1000030C0000030BF000030BE00B7
:102F5C00BD1FB12FB22FCA2F0030C2000030C300EA
:102F6C000030C4008030C5003A08C2023B08C33BA5
:102F7C003C08C43B3D08C53B4508BD004408BC00AB
:102F8C004308BB004208BA00C11FCD2FCE2FE62F3D
:102F9C000030C2000030C3000030C4008030C500D7
:102FAC003E08C2023F08C33B4008C43B4108C53B36
:102FBC004508C1004408C0004308BF004208BE00D9
:102FCC008030BD068030C10641083D02031DF82F3C
:102FDC0040083C02031DF82F3F083B02031DF82F4D
:102FEC003E083A020318FB2FFC2FFE2F0310FF2F75
:102FFC0003140800203420342034203420342534A9
:10300C0033342E3432346634203443342034003498
:10301C0020342034543465346D3470346534723457
:10302C0061347434753472346134003469346E3400
:0C303C00663400346E3461346E340034AD
:020000040001F9
:0A000E00EC3FFF3F9F3FFF3FFF3F25
:00000001FF
